{
  "_format": "hh-sol-artifact-1",
  "contractName": "BinaryMarket",
  "sourceName": "contracts/BinaryMarket.sol",
  "abi": [
    {
      "inputs": [
        {
          "internalType": "address",
          "name": "_usdc",
          "type": "address"
        },
        {
          "internalType": "address",
          "name": "_treasury",
          "type": "address"
        },
        {
          "internalType": "uint256",
          "name": "_marketId",
          "type": "uint256"
        },
        {
          "internalType": "string",
          "name": "_eventTitle",
          "type": "string"
        },
        {
          "internalType": "uint256",
          "name": "_endTime",
          "type": "uint256"
        },
        {
          "internalType": "uint256",
          "name": "_feeBps",
          "type": "uint256"
        }
      ],
      "stateMutability": "nonpayable",
      "type": "constructor"
    },
    {
      "inputs": [
        {
          "internalType": "address",
          "name": "sender",
          "type": "address"
        },
        {
          "internalType": "uint256",
          "name": "balance",
          "type": "uint256"
        },
        {
          "internalType": "uint256",
          "name": "needed",
          "type": "uint256"
        },
        {
          "internalType": "uint256",
          "name": "tokenId",
          "type": "uint256"
        }
      ],
      "name": "ERC1155InsufficientBalance",
      "type": "error"
    },
    {
      "inputs": [
        {
          "internalType": "address",
          "name": "approver",
          "type": "address"
        }
      ],
      "name": "ERC1155InvalidApprover",
      "type": "error"
    },
    {
      "inputs": [
        {
          "internalType": "uint256",
          "name": "idsLength",
          "type": "uint256"
        },
        {
          "internalType": "uint256",
          "name": "valuesLength",
          "type": "uint256"
        }
      ],
      "name": "ERC1155InvalidArrayLength",
      "type": "error"
    },
    {
      "inputs": [
        {
          "internalType": "address",
          "name": "operator",
          "type": "address"
        }
      ],
      "name": "ERC1155InvalidOperator",
      "type": "error"
    },
    {
      "inputs": [
        {
          "internalType": "address",
          "name": "receiver",
          "type": "address"
        }
      ],
      "name": "ERC1155InvalidReceiver",
      "type": "error"
    },
    {
      "inputs": [
        {
          "internalType": "address",
          "name": "sender",
          "type": "address"
        }
      ],
      "name": "ERC1155InvalidSender",
      "type": "error"
    },
    {
      "inputs": [
        {
          "internalType": "address",
          "name": "operator",
          "type": "address"
        },
        {
          "internalType": "address",
          "name": "owner",
          "type": "address"
        }
      ],
      "name": "ERC1155MissingApprovalForAll",
      "type": "error"
    },
    {
      "inputs": [
        {
          "internalType": "address",
          "name": "owner",
          "type": "address"
        }
      ],
      "name": "OwnableInvalidOwner",
      "type": "error"
    },
    {
      "inputs": [
        {
          "internalType": "address",
          "name": "account",
          "type": "address"
        }
      ],
      "name": "OwnableUnauthorizedAccount",
      "type": "error"
    },
    {
      "inputs": [],
      "name": "ReentrancyGuardReentrantCall",
      "type": "error"
    },
    {
      "anonymous": false,
      "inputs": [
        {
          "indexed": true,
          "internalType": "address",
          "name": "account",
          "type": "address"
        },
        {
          "indexed": true,
          "internalType": "address",
          "name": "operator",
          "type": "address"
        },
        {
          "indexed": false,
          "internalType": "bool",
          "name": "approved",
          "type": "bool"
        }
      ],
      "name": "ApprovalForAll",
      "type": "event"
    },
    {
      "anonymous": false,
      "inputs": [
        {
          "indexed": true,
          "internalType": "address",
          "name": "bettor",
          "type": "address"
        },
        {
          "indexed": false,
          "internalType": "bool",
          "name": "isYes",
          "type": "bool"
        },
        {
          "indexed": false,
          "internalType": "uint256",
          "name": "amount",
          "type": "uint256"
        },
        {
          "indexed": false,
          "internalType": "uint256",
          "name": "timestamp",
          "type": "uint256"
        }
      ],
      "name": "BetPlaced",
      "type": "event"
    },
    {
      "anonymous": false,
      "inputs": [
        {
          "indexed": false,
          "internalType": "uint256",
          "name": "newFeeBps",
          "type": "uint256"
        },
        {
          "indexed": false,
          "internalType": "uint256",
          "name": "timestamp",
          "type": "uint256"
        }
      ],
      "name": "FeeUpdated",
      "type": "event"
    },
    {
      "anonymous": false,
      "inputs": [
        {
          "indexed": false,
          "internalType": "uint256",
          "name": "timestamp",
          "type": "uint256"
        }
      ],
      "name": "MarketCancelled",
      "type": "event"
    },
    {
      "anonymous": false,
      "inputs": [
        {
          "indexed": false,
          "internalType": "enum BinaryMarket.Outcome",
          "name": "outcome",
          "type": "uint8"
        },
        {
          "indexed": false,
          "internalType": "uint256",
          "name": "timestamp",
          "type": "uint256"
        }
      ],
      "name": "MarketResolved",
      "type": "event"
    },
    {
      "anonymous": false,
      "inputs": [
        {
          "indexed": true,
          "internalType": "uint256",
          "name": "orderId",
          "type": "uint256"
        },
        {
          "indexed": false,
          "internalType": "uint256",
          "name": "timestamp",
          "type": "uint256"
        }
      ],
      "name": "OrderCancelled",
      "type": "event"
    },
    {
      "anonymous": false,
      "inputs": [
        {
          "indexed": true,
          "internalType": "uint256",
          "name": "orderId",
          "type": "uint256"
        },
        {
          "indexed": true,
          "internalType": "address",
          "name": "taker",
          "type": "address"
        },
        {
          "indexed": false,
          "internalType": "uint256",
          "name": "amountFilled",
          "type": "uint256"
        },
        {
          "indexed": false,
          "internalType": "uint256",
          "name": "timestamp",
          "type": "uint256"
        }
      ],
      "name": "OrderFilled",
      "type": "event"
    },
    {
      "anonymous": false,
      "inputs": [
        {
          "indexed": true,
          "internalType": "uint256",
          "name": "orderId",
          "type": "uint256"
        },
        {
          "indexed": true,
          "internalType": "address",
          "name": "maker",
          "type": "address"
        },
        {
          "indexed": false,
          "internalType": "uint256",
          "name": "amount",
          "type": "uint256"
        },
        {
          "indexed": false,
          "internalType": "uint256",
          "name": "price",
          "type": "uint256"
        },
        {
          "indexed": false,
          "internalType": "bool",
          "name": "isYes",
          "type": "bool"
        },
        {
          "indexed": false,
          "internalType": "bool",
          "name": "isBuying",
          "type": "bool"
        },
        {
          "indexed": false,
          "internalType": "uint256",
          "name": "timestamp",
          "type": "uint256"
        }
      ],
      "name": "OrderPlaced",
      "type": "event"
    },
    {
      "anonymous": false,
      "inputs": [
        {
          "indexed": true,
          "internalType": "address",
          "name": "previousOwner",
          "type": "address"
        },
        {
          "indexed": true,
          "internalType": "address",
          "name": "newOwner",
          "type": "address"
        }
      ],
      "name": "OwnershipTransferred",
      "type": "event"
    },
    {
      "anonymous": false,
      "inputs": [
        {
          "indexed": true,
          "internalType": "address",
          "name": "user",
          "type": "address"
        },
        {
          "indexed": false,
          "internalType": "bool",
          "name": "isYes",
          "type": "bool"
        },
        {
          "indexed": false,
          "internalType": "uint256",
          "name": "shares",
          "type": "uint256"
        },
        {
          "indexed": false,
          "internalType": "uint256",
          "name": "usdcReceived",
          "type": "uint256"
        },
        {
          "indexed": false,
          "internalType": "uint256",
          "name": "fee",
          "type": "uint256"
        },
        {
          "indexed": false,
          "internalType": "uint256",
          "name": "timestamp",
          "type": "uint256"
        }
      ],
      "name": "PositionSold",
      "type": "event"
    },
    {
      "anonymous": false,
      "inputs": [
        {
          "indexed": true,
          "internalType": "address",
          "name": "referrer",
          "type": "address"
        },
        {
          "indexed": true,
          "internalType": "address",
          "name": "referee",
          "type": "address"
        },
        {
          "indexed": false,
          "internalType": "uint256",
          "name": "amount",
          "type": "uint256"
        },
        {
          "indexed": false,
          "internalType": "uint256",
          "name": "timestamp",
          "type": "uint256"
        }
      ],
      "name": "ReferralCommissionPaid",
      "type": "event"
    },
    {
      "anonymous": false,
      "inputs": [
        {
          "indexed": true,
          "internalType": "address",
          "name": "user",
          "type": "address"
        },
        {
          "indexed": false,
          "internalType": "uint256",
          "name": "amount",
          "type": "uint256"
        },
        {
          "indexed": false,
          "internalType": "uint256",
          "name": "timestamp",
          "type": "uint256"
        }
      ],
      "name": "RefundClaimed",
      "type": "event"
    },
    {
      "anonymous": false,
      "inputs": [
        {
          "indexed": true,
          "internalType": "address",
          "name": "operator",
          "type": "address"
        },
        {
          "indexed": true,
          "internalType": "address",
          "name": "from",
          "type": "address"
        },
        {
          "indexed": true,
          "internalType": "address",
          "name": "to",
          "type": "address"
        },
        {
          "indexed": false,
          "internalType": "uint256[]",
          "name": "ids",
          "type": "uint256[]"
        },
        {
          "indexed": false,
          "internalType": "uint256[]",
          "name": "values",
          "type": "uint256[]"
        }
      ],
      "name": "TransferBatch",
      "type": "event"
    },
    {
      "anonymous": false,
      "inputs": [
        {
          "indexed": true,
          "internalType": "address",
          "name": "operator",
          "type": "address"
        },
        {
          "indexed": true,
          "internalType": "address",
          "name": "from",
          "type": "address"
        },
        {
          "indexed": true,
          "internalType": "address",
          "name": "to",
          "type": "address"
        },
        {
          "indexed": false,
          "internalType": "uint256",
          "name": "id",
          "type": "uint256"
        },
        {
          "indexed": false,
          "internalType": "uint256",
          "name": "value",
          "type": "uint256"
        }
      ],
      "name": "TransferSingle",
      "type": "event"
    },
    {
      "anonymous": false,
      "inputs": [
        {
          "indexed": false,
          "internalType": "address",
          "name": "newTreasury",
          "type": "address"
        },
        {
          "indexed": false,
          "internalType": "uint256",
          "name": "timestamp",
          "type": "uint256"
        }
      ],
      "name": "TreasuryUpdated",
      "type": "event"
    },
    {
      "anonymous": false,
      "inputs": [
        {
          "indexed": false,
          "internalType": "string",
          "name": "value",
          "type": "string"
        },
        {
          "indexed": true,
          "internalType": "uint256",
          "name": "id",
          "type": "uint256"
        }
      ],
      "name": "URI",
      "type": "event"
    },
    {
      "anonymous": false,
      "inputs": [
        {
          "indexed": true,
          "internalType": "address",
          "name": "user",
          "type": "address"
        },
        {
          "indexed": false,
          "internalType": "uint256",
          "name": "winnings",
          "type": "uint256"
        },
        {
          "indexed": false,
          "internalType": "uint256",
          "name": "feeAmount",
          "type": "uint256"
        },
        {
          "indexed": false,
          "internalType": "uint256",
          "name": "netPayout",
          "type": "uint256"
        },
        {
          "indexed": false,
          "internalType": "uint256",
          "name": "timestamp",
          "type": "uint256"
        }
      ],
      "name": "WinningsClaimed",
      "type": "event"
    },
    {
      "inputs": [],
      "name": "NO_TOKEN_ID",
      "outputs": [
        {
          "internalType": "uint256",
          "name": "",
          "type": "uint256"
        }
      ],
      "stateMutability": "view",
      "type": "function"
    },
    {
      "inputs": [],
      "name": "REFERRAL_COMMISSION_BPS",
      "outputs": [
        {
          "internalType": "uint256",
          "name": "",
          "type": "uint256"
        }
      ],
      "stateMutability": "view",
      "type": "function"
    },
    {
      "inputs": [],
      "name": "SECONDARY_FEE_BPS",
      "outputs": [
        {
          "internalType": "uint256",
          "name": "",
          "type": "uint256"
        }
      ],
      "stateMutability": "view",
      "type": "function"
    },
    {
      "inputs": [],
      "name": "YES_TOKEN_ID",
      "outputs": [
        {
          "internalType": "uint256",
          "name": "",
          "type": "uint256"
        }
      ],
      "stateMutability": "view",
      "type": "function"
    },
    {
      "inputs": [
        {
          "internalType": "uint256",
          "name": "outcome",
          "type": "uint256"
        }
      ],
      "name": "adminResolve",
      "outputs": [],
      "stateMutability": "nonpayable",
      "type": "function"
    },
    {
      "inputs": [
        {
          "internalType": "address",
          "name": "account",
          "type": "address"
        },
        {
          "internalType": "uint256",
          "name": "id",
          "type": "uint256"
        }
      ],
      "name": "balanceOf",
      "outputs": [
        {
          "internalType": "uint256",
          "name": "",
          "type": "uint256"
        }
      ],
      "stateMutability": "view",
      "type": "function"
    },
    {
      "inputs": [
        {
          "internalType": "address[]",
          "name": "accounts",
          "type": "address[]"
        },
        {
          "internalType": "uint256[]",
          "name": "ids",
          "type": "uint256[]"
        }
      ],
      "name": "balanceOfBatch",
      "outputs": [
        {
          "internalType": "uint256[]",
          "name": "",
          "type": "uint256[]"
        }
      ],
      "stateMutability": "view",
      "type": "function"
    },
    {
      "inputs": [
        {
          "internalType": "uint256",
          "name": "amount",
          "type": "uint256"
        }
      ],
      "name": "buyNo",
      "outputs": [],
      "stateMutability": "nonpayable",
      "type": "function"
    },
    {
      "inputs": [
        {
          "internalType": "uint256",
          "name": "amount",
          "type": "uint256"
        },
        {
          "internalType": "address",
          "name": "referrer",
          "type": "address"
        }
      ],
      "name": "buyNoWithReferrer",
      "outputs": [],
      "stateMutability": "nonpayable",
      "type": "function"
    },
    {
      "inputs": [
        {
          "internalType": "uint256",
          "name": "amount",
          "type": "uint256"
        },
        {
          "internalType": "address",
          "name": "referrer",
          "type": "address"
        },
        {
          "internalType": "uint256",
          "name": "minSharesOut",
          "type": "uint256"
        }
      ],
      "name": "buyNoWithSlippage",
      "outputs": [],
      "stateMutability": "nonpayable",
      "type": "function"
    },
    {
      "inputs": [
        {
          "internalType": "uint256",
          "name": "amount",
          "type": "uint256"
        }
      ],
      "name": "buyYes",
      "outputs": [],
      "stateMutability": "nonpayable",
      "type": "function"
    },
    {
      "inputs": [
        {
          "internalType": "uint256",
          "name": "amount",
          "type": "uint256"
        },
        {
          "internalType": "address",
          "name": "referrer",
          "type": "address"
        }
      ],
      "name": "buyYesWithReferrer",
      "outputs": [],
      "stateMutability": "nonpayable",
      "type": "function"
    },
    {
      "inputs": [
        {
          "internalType": "uint256",
          "name": "amount",
          "type": "uint256"
        },
        {
          "internalType": "address",
          "name": "referrer",
          "type": "address"
        },
        {
          "internalType": "uint256",
          "name": "minSharesOut",
          "type": "uint256"
        }
      ],
      "name": "buyYesWithSlippage",
      "outputs": [],
      "stateMutability": "nonpayable",
      "type": "function"
    },
    {
      "inputs": [
        {
          "internalType": "uint256",
          "name": "orderId",
          "type": "uint256"
        }
      ],
      "name": "cancelLimitOrder",
      "outputs": [],
      "stateMutability": "nonpayable",
      "type": "function"
    },
    {
      "inputs": [],
      "name": "cancelMarket",
      "outputs": [],
      "stateMutability": "nonpayable",
      "type": "function"
    },
    {
      "inputs": [
        {
          "internalType": "uint256",
          "name": "id",
          "type": "uint256"
        }
      ],
      "name": "claimRefund",
      "outputs": [],
      "stateMutability": "nonpayable",
      "type": "function"
    },
    {
      "inputs": [],
      "name": "claimWinnings",
      "outputs": [],
      "stateMutability": "nonpayable",
      "type": "function"
    },
    {
      "inputs": [],
      "name": "endTime",
      "outputs": [
        {
          "internalType": "uint256",
          "name": "",
          "type": "uint256"
        }
      ],
      "stateMutability": "view",
      "type": "function"
    },
    {
      "inputs": [],
      "name": "eventTitle",
      "outputs": [
        {
          "internalType": "string",
          "name": "",
          "type": "string"
        }
      ],
      "stateMutability": "view",
      "type": "function"
    },
    {
      "inputs": [],
      "name": "feeBps",
      "outputs": [
        {
          "internalType": "uint256",
          "name": "",
          "type": "uint256"
        }
      ],
      "stateMutability": "view",
      "type": "function"
    },
    {
      "inputs": [
        {
          "internalType": "uint256",
          "name": "orderId",
          "type": "uint256"
        },
        {
          "internalType": "uint256",
          "name": "amountToFill",
          "type": "uint256"
        }
      ],
      "name": "fillOrder",
      "outputs": [],
      "stateMutability": "nonpayable",
      "type": "function"
    },
    {
      "inputs": [],
      "name": "getMarketDetails",
      "outputs": [
        {
          "internalType": "uint256",
          "name": "id",
          "type": "uint256"
        },
        {
          "internalType": "string",
          "name": "title",
          "type": "string"
        },
        {
          "internalType": "uint256",
          "name": "end",
          "type": "uint256"
        },
        {
          "internalType": "uint256",
          "name": "yesPool",
          "type": "uint256"
        },
        {
          "internalType": "uint256",
          "name": "noPool",
          "type": "uint256"
        },
        {
          "internalType": "string",
          "name": "statusStr",
          "type": "string"
        }
      ],
      "stateMutability": "view",
      "type": "function"
    },
    {
      "inputs": [
        {
          "internalType": "uint256",
          "name": "tokenId",
          "type": "uint256"
        }
      ],
      "name": "getPrice",
      "outputs": [
        {
          "internalType": "uint256",
          "name": "",
          "type": "uint256"
        }
      ],
      "stateMutability": "view",
      "type": "function"
    },
    {
      "inputs": [
        {
          "internalType": "address",
          "name": "account",
          "type": "address"
        },
        {
          "internalType": "address",
          "name": "operator",
          "type": "address"
        }
      ],
      "name": "isApprovedForAll",
      "outputs": [
        {
          "internalType": "bool",
          "name": "",
          "type": "bool"
        }
      ],
      "stateMutability": "view",
      "type": "function"
    },
    {
      "inputs": [],
      "name": "marketId",
      "outputs": [
        {
          "internalType": "uint256",
          "name": "",
          "type": "uint256"
        }
      ],
      "stateMutability": "view",
      "type": "function"
    },
    {
      "inputs": [],
      "name": "nextOrderId",
      "outputs": [
        {
          "internalType": "uint256",
          "name": "",
          "type": "uint256"
        }
      ],
      "stateMutability": "view",
      "type": "function"
    },
    {
      "inputs": [],
      "name": "noPoolAmount",
      "outputs": [
        {
          "internalType": "uint256",
          "name": "",
          "type": "uint256"
        }
      ],
      "stateMutability": "view",
      "type": "function"
    },
    {
      "inputs": [
        {
          "internalType": "uint256",
          "name": "",
          "type": "uint256"
        }
      ],
      "name": "orders",
      "outputs": [
        {
          "internalType": "uint256",
          "name": "id",
          "type": "uint256"
        },
        {
          "internalType": "address",
          "name": "maker",
          "type": "address"
        },
        {
          "internalType": "uint256",
          "name": "amount",
          "type": "uint256"
        },
        {
          "internalType": "uint256",
          "name": "price",
          "type": "uint256"
        },
        {
          "internalType": "bool",
          "name": "isYes",
          "type": "bool"
        },
        {
          "internalType": "bool",
          "name": "isBuying",
          "type": "bool"
        },
        {
          "internalType": "uint256",
          "name": "remaining",
          "type": "uint256"
        },
        {
          "internalType": "bool",
          "name": "isActive",
          "type": "bool"
        }
      ],
      "stateMutability": "view",
      "type": "function"
    },
    {
      "inputs": [],
      "name": "owner",
      "outputs": [
        {
          "internalType": "address",
          "name": "",
          "type": "address"
        }
      ],
      "stateMutability": "view",
      "type": "function"
    },
    {
      "inputs": [
        {
          "internalType": "uint256",
          "name": "amount",
          "type": "uint256"
        },
        {
          "internalType": "uint256",
          "name": "price",
          "type": "uint256"
        },
        {
          "internalType": "bool",
          "name": "isYes",
          "type": "bool"
        },
        {
          "internalType": "bool",
          "name": "isBuying",
          "type": "bool"
        }
      ],
      "name": "placeLimitOrder",
      "outputs": [],
      "stateMutability": "nonpayable",
      "type": "function"
    },
    {
      "inputs": [
        {
          "internalType": "address",
          "name": "",
          "type": "address"
        }
      ],
      "name": "referrerEarnings",
      "outputs": [
        {
          "internalType": "uint256",
          "name": "",
          "type": "uint256"
        }
      ],
      "stateMutability": "view",
      "type": "function"
    },
    {
      "inputs": [],
      "name": "renounceOwnership",
      "outputs": [],
      "stateMutability": "nonpayable",
      "type": "function"
    },
    {
      "inputs": [],
      "name": "resolvedOutcome",
      "outputs": [
        {
          "internalType": "enum BinaryMarket.Outcome",
          "name": "",
          "type": "uint8"
        }
      ],
      "stateMutability": "view",
      "type": "function"
    },
    {
      "inputs": [
        {
          "internalType": "address",
          "name": "from",
          "type": "address"
        },
        {
          "internalType": "address",
          "name": "to",
          "type": "address"
        },
        {
          "internalType": "uint256[]",
          "name": "ids",
          "type": "uint256[]"
        },
        {
          "internalType": "uint256[]",
          "name": "values",
          "type": "uint256[]"
        },
        {
          "internalType": "bytes",
          "name": "data",
          "type": "bytes"
        }
      ],
      "name": "safeBatchTransferFrom",
      "outputs": [],
      "stateMutability": "nonpayable",
      "type": "function"
    },
    {
      "inputs": [
        {
          "internalType": "address",
          "name": "from",
          "type": "address"
        },
        {
          "internalType": "address",
          "name": "to",
          "type": "address"
        },
        {
          "internalType": "uint256",
          "name": "id",
          "type": "uint256"
        },
        {
          "internalType": "uint256",
          "name": "value",
          "type": "uint256"
        },
        {
          "internalType": "bytes",
          "name": "data",
          "type": "bytes"
        }
      ],
      "name": "safeTransferFrom",
      "outputs": [],
      "stateMutability": "nonpayable",
      "type": "function"
    },
    {
      "inputs": [
        {
          "internalType": "uint256",
          "name": "shares",
          "type": "uint256"
        }
      ],
      "name": "sellNo",
      "outputs": [],
      "stateMutability": "nonpayable",
      "type": "function"
    },
    {
      "inputs": [
        {
          "internalType": "uint256",
          "name": "shares",
          "type": "uint256"
        }
      ],
      "name": "sellYes",
      "outputs": [],
      "stateMutability": "nonpayable",
      "type": "function"
    },
    {
      "inputs": [
        {
          "internalType": "address",
          "name": "operator",
          "type": "address"
        },
        {
          "internalType": "bool",
          "name": "approved",
          "type": "bool"
        }
      ],
      "name": "setApprovalForAll",
      "outputs": [],
      "stateMutability": "nonpayable",
      "type": "function"
    },
    {
      "inputs": [],
      "name": "status",
      "outputs": [
        {
          "internalType": "enum BinaryMarket.MarketStatus",
          "name": "",
          "type": "uint8"
        }
      ],
      "stateMutability": "view",
      "type": "function"
    },
    {
      "inputs": [
        {
          "internalType": "bytes4",
          "name": "interfaceId",
          "type": "bytes4"
        }
      ],
      "name": "supportsInterface",
      "outputs": [
        {
          "internalType": "bool",
          "name": "",
          "type": "bool"
        }
      ],
      "stateMutability": "view",
      "type": "function"
    },
    {
      "inputs": [
        {
          "internalType": "uint256",
          "name": "id",
          "type": "uint256"
        }
      ],
      "name": "totalSupply",
      "outputs": [
        {
          "internalType": "uint256",
          "name": "",
          "type": "uint256"
        }
      ],
      "stateMutability": "view",
      "type": "function"
    },
    {
      "inputs": [
        {
          "internalType": "address",
          "name": "newOwner",
          "type": "address"
        }
      ],
      "name": "transferOwnership",
      "outputs": [],
      "stateMutability": "nonpayable",
      "type": "function"
    },
    {
      "inputs": [],
      "name": "treasury",
      "outputs": [
        {
          "internalType": "address",
          "name": "",
          "type": "address"
        }
      ],
      "stateMutability": "view",
      "type": "function"
    },
    {
      "inputs": [
        {
          "internalType": "uint256",
          "name": "",
          "type": "uint256"
        }
      ],
      "name": "uri",
      "outputs": [
        {
          "internalType": "string",
          "name": "",
          "type": "string"
        }
      ],
      "stateMutability": "view",
      "type": "function"
    },
    {
      "inputs": [],
      "name": "usdc",
      "outputs": [
        {
          "internalType": "contract IERC20",
          "name": "",
          "type": "address"
        }
      ],
      "stateMutability": "view",
      "type": "function"
    },
    {
      "inputs": [
        {
          "internalType": "address",
          "name": "",
          "type": "address"
        }
      ],
      "name": "userReferrer",
      "outputs": [
        {
          "internalType": "address",
          "name": "",
          "type": "address"
        }
      ],
      "stateMutability": "view",
      "type": "function"
    },
    {
      "inputs": [],
      "name": "yesPoolAmount",
      "outputs": [
        {
          "internalType": "uint256",
          "name": "",
          "type": "uint256"
        }
      ],
      "stateMutability": "view",
      "type": "function"
    }
  ],
  "bytecode": "0x608060405234801562000010575f80fd5b506040516200483f3803806200483f8339810160408190526200003391620002fd565b60408051602081019091525f815233906200004e816200026a565b506001600160a01b0381166200007e57604051631e4fbdf760e01b81525f60048201526024015b60405180910390fd5b62000089816200027c565b5060017f9b779b17422d0df92223018b32b4d1fa46e071723d6817e2486d003becc55f00556001600160a01b038616620001065760405162461bcd60e51b815260206004820152601460248201527f496e76616c696420555344432061646472657373000000000000000000000000604482015260640162000075565b6001600160a01b0385166200015e5760405162461bcd60e51b815260206004820152601860248201527f496e76616c696420747265617375727920616464726573730000000000000000604482015260640162000075565b428211620001af5760405162461bcd60e51b815260206004820152601e60248201527f456e642074696d65206d75737420626520696e20746865206675747572650000604482015260640162000075565b612710811115620002035760405162461bcd60e51b815260206004820152601660248201527f4665652063616e6e6f7420657863656564203130302500000000000000000000604482015260640162000075565b600480546001600160a01b038089166001600160a01b03199283161790925560058054928816929091169190911790556006849055600762000246848262000494565b506008919091556009555050600a805461ffff191690555050600160105562000560565b600262000278828262000494565b5050565b600380546001600160a01b038381166001600160a01b0319831681179093556040519116919082907f8be0079c531659141344cd1fd0a4f28419497f9722a3daafe3b4186f6b6457e0905f90a35050565b80516001600160a01b0381168114620002e4575f80fd5b919050565b634e487b7160e01b5f52604160045260245ffd5b5f805f805f8060c0878903121562000313575f80fd5b6200031e87620002cd565b955060206200032f818901620002cd565b604089015160608a015191975095506001600160401b038082111562000353575f80fd5b818a0191508a601f83011262000367575f80fd5b8151818111156200037c576200037c620002e9565b604051601f8201601f19908116603f01168101908382118183101715620003a757620003a7620002e9565b816040528281528d86848701011115620003bf575f80fd5b5f93505b82841015620003e25784840186015181850187015292850192620003c3565b5f8684830101528098505050505050506080870151915060a087015190509295509295509295565b600181811c908216806200041f57607f821691505b6020821081036200043e57634e487b7160e01b5f52602260045260245ffd5b50919050565b601f8211156200048f57805f5260205f20601f840160051c810160208510156200046b5750805b601f840160051c820191505b818110156200048c575f815560010162000477565b50505b505050565b81516001600160401b03811115620004b057620004b0620002e9565b620004c881620004c184546200040a565b8462000444565b602080601f831160018114620004fe575f8415620004e65750858301515b5f19600386901b1c1916600185901b17855562000558565b5f85815260208120601f198616915b828110156200052e578886015182559484019460019091019084016200050d565b50858210156200054c57878501515f19600388901b60f8161c191681555b505060018460011b0185555b505050505050565b6142d1806200056e5f395ff3fe608060405234801561000f575f80fd5b506004361061028b575f3560e01c8063860954a211610161578063c37dfc5b116100ca578063eb3ba72f11610084578063eb3ba72f14610669578063f242432a14610688578063f2fde38b1461069b578063f50374b3146106ae578063fa0c80f4146106b6578063fdbbe27b146106bf575f80fd5b8063c37dfc5b146105da578063c545ab54146105ed578063c731658014610600578063cd6355b514610613578063e75722301461061b578063e985e9c51461062e575f80fd5b8063a3d43e481161011b578063a3d43e48146104d9578063a434b634146104e2578063a5cdc8fc146104f5578063a85c38ef14610508578063b401faf1146105b3578063bd85b039146105bb575f80fd5b8063860954a21461046d5780638b0f8a2f146104755780638da5cb5b1461048857806390065d5f146104995780639f2774e7146104b3578063a22cb465146104c6575f80fd5b80633e413bee116102035780635b7baf64116101bd5780635b7baf641461040657806361d027b3146104195780636bfefd6b1461042c5780636ed71ede14610434578063715018a61461043d5780637c3fcc3814610445575f80fd5b80633e413bee1461037a5780634e1273f4146103a55780635422e10e146103c557806356ed096f146103d857806358c36e5c146103e05780635a041453146103f3575f80fd5b80631c371e2b116102545780631c371e2b14610320578063200d2ed21461033f57806324a9d8531461034c5780632a58b330146103555780632eb2c2d61461035e5780633197cbb614610371575f80fd5b8062fdd58e1461028f57806301ffc9a7146102b5578063061dd98d146102d85780630e89341c146102ed57806311f957fd1461030d575b5f80fd5b6102a261029d366004613a09565b6106c8565b6040519081526020015b60405180910390f35b6102c86102c3366004613a46565b6106ef565b60405190151581526020016102ac565b6102eb6102e6366004613a61565b61073e565b005b6103006102fb366004613a61565b61076a565b6040516102ac9190613abb565b6102eb61031b366004613a61565b6107fc565b600a5461033290610100900460ff1681565b6040516102ac9190613afd565b600a546103329060ff1681565b6102a260095481565b6102a260105481565b6102eb61036c366004613c50565b610cfd565b6102a260085481565b60045461038d906001600160a01b031681565b6040516001600160a01b0390911681526020016102ac565b6103b86103b3366004613cf3565b610d1c565b6040516102ac9190613de7565b6102eb6103d3366004613df9565b610de7565b6102a2600281565b6102eb6103ee366004613a61565b610e15565b6102eb610401366004613df9565b610e28565b6102eb610414366004613a61565b610e3b565b60055461038d906001600160a01b031681565b6102eb611079565b6102a260065481565b6102eb61111e565b61038d610453366004613e2b565b600d6020525f90815260409020546001600160a01b031681565b610300611131565b6102eb610483366004613e51565b6111bd565b6003546001600160a01b031661038d565b6104a1611589565b6040516102ac96959493929190613e98565b6102eb6104c1366004613a61565b6116f4565b6102eb6104d4366004613ee1565b611832565b6102a261138881565b6102eb6104f0366004613f16565b611841565b6102eb610503366004613a61565b61186a565b61056a610516366004613a61565b600f6020525f9081526040902080546001820154600283015460038401546004850154600586015460069096015494956001600160a01b03909416949293919260ff80831693610100909304811692911688565b604080519889526001600160a01b03909716602089015295870194909452606086019290925215156080850152151560a084015260c0830152151560e0820152610100016102ac565b6102eb611a73565b6102a26105c9366004613a61565b5f9081526011602052604090205490565b6102eb6105e8366004613f40565b6120ed565b6102eb6105fb366004613a61565b6125b4565b6102eb61060e366004613f16565b612a8c565b6102a2600181565b6102a2610629366004613a61565b612a9f565b6102c861063c366004613f60565b6001600160a01b039182165f90815260016020908152604080832093909416825291909152205460ff1690565b6102a2610677366004613e2b565b600e6020525f908152604090205481565b6102eb610696366004613f88565b612b08565b6102eb6106a9366004613e2b565b612b1e565b6102a260c881565b6102a2600b5481565b6102a2600c5481565b5f818152602081815260408083206001600160a01b03861684529091529020545b92915050565b5f6001600160e01b03198216636cdb3d1360e11b148061071f57506001600160e01b031982166303a24d0760e21b145b806106e957506301ffc9a760e01b6001600160e01b03198316146106e9565b610746612b58565b610751815f80612b73565b61076760015f8051602061427c83398151915255565b50565b60606002805461077990613fe8565b80601f01602080910402602001604051908101604052809291908181526020018280546107a590613fe8565b80156107f05780601f106107c7576101008083540402835291602001916107f0565b820191905f5260205f20905b8154815290600101906020018083116107d357829003601f168201915b50505050509050919050565b610804612b58565b5f600a5460ff16600281111561081c5761081c613acd565b146108425760405162461bcd60e51b81526004016108399061401a565b60405180910390fd5b8061084e3360016106c8565b10156108925760405162461bcd60e51b8152602060048201526013602482015272496e73756666696369656e742073686172657360681b6044820152606401610839565b5f61089d6001612a9f565b90505f620f42406108ae838561405a565b6108b89190614071565b90505f6127106108c960c88461405a565b6108d39190614071565b90505f6108e08284614090565b90506108ee33600187612e33565b82600b5f8282546108ff9190614090565b90915550506004805460405163a9059cbb60e01b81526001600160a01b039091169163a9059cbb916109359133918691016140a3565b6020604051808303815f875af1158015610951573d5f803e3d5ffd5b505050506040513d601f19601f8201168201806040525081019061097591906140bc565b6109b35760405162461bcd60e51b815260206004820152600f60248201526e151c985b9cd9995c8819985a5b1959608a1b6044820152606401610839565b335f908152600d60205260409020546001600160a01b031680158015906109d957505f83115b15610be3575f6127106109ee6113888661405a565b6109f89190614071565b90505f610a058286614090565b6001600160a01b0384165f908152600e6020526040812080549293508492909190610a319084906140d7565b90915550506004805460405163a9059cbb60e01b81526001600160a01b039091169163a9059cbb91610a679187918791016140a3565b6020604051808303815f875af1158015610a83573d5f803e3d5ffd5b505050506040513d601f19601f82011682018060405250810190610aa791906140bc565b610ae55760405162461bcd60e51b815260206004820152600f60248201526e149959995c9c985b0819985a5b1959608a1b6044820152606401610839565b6004805460055460405163a9059cbb60e01b81526001600160a01b039283169363a9059cbb93610b199316918691016140a3565b6020604051808303815f875af1158015610b35573d5f803e3d5ffd5b505050506040513d601f19601f82011682018060405250810190610b5991906140bc565b610b975760405162461bcd60e51b815260206004820152600f60248201526e151c99585cdd5c9e4819985a5b1959608a1b6044820152606401610839565b6040805183815242602082015233916001600160a01b038616917f8eadd36a0aee67beaef95bd7b130cb68a3b1a16ac68f0b395333c0db184428a2910160405180910390a35050610c90565b6004805460055460405163a9059cbb60e01b81526001600160a01b039283169363a9059cbb93610c179316918891016140a3565b6020604051808303815f875af1158015610c33573d5f803e3d5ffd5b505050506040513d601f19601f82011682018060405250810190610c5791906140bc565b610c905760405162461bcd60e51b815260206004820152600a6024820152691199594819985a5b195960b21b6044820152606401610839565b6040805160018152602081018890529081018390526060810184905242608082015233907fcdb6774d4feebf6f81a8ec31ee4dcf92b418a4b2202926b797e7eac5c08e75259060a0015b60405180910390a2505050505061076760015f8051602061427c83398151915255565b610d08335b86612e9a565b610d158585858585612f12565b5050505050565b60608151835114610d4d5781518351604051635b05999160e01b815260048101929092526024820152604401610839565b5f835167ffffffffffffffff811115610d6857610d68613b10565b604051908082528060200260200182016040528015610d91578160200160208202803683370190505b5090505f5b8451811015610ddf57602080820286010151610dba906020808402870101516106c8565b828281518110610dcc57610dcc6140ea565b6020908102919091010152600101610d96565b509392505050565b610def612b58565b610dfa838383612f72565b610e1060015f8051602061427c83398151915255565b505050565b610e1d612b58565b610751815f80612f72565b610e30612b58565b610dfa838383612b73565b610e43612b58565b6002600a5460ff166002811115610e5c57610e5c613acd565b14610e995760405162461bcd60e51b815260206004820152600d60248201526c139bdd0818d85b98d95b1b1959609a1b6044820152606401610839565b5f610ea433836106c8565b90505f8111610ee15760405162461bcd60e51b81526020600482015260096024820152684e6f2073686172657360b81b6044820152606401610839565b5f600c54600b54610ef291906140d7565b5f848152601160205260408120547f08037d7b151cc412d25674a4e66b334d9ae9d2e5517a7feaae5cdb828bf1c62854600183527f17bc176d2408558f6e4111feebc3cab4e16b63e967be91cde721f4c8a488b552549394509092610f5791906140d7565b610f61848661405a565b610f6b9190614071565b9050610f78338686612e33565b6004805460405163a9059cbb60e01b81526001600160a01b039091169163a9059cbb91610fa99133918691016140a3565b6020604051808303815f875af1158015610fc5573d5f803e3d5ffd5b505050506040513d601f19601f82011682018060405250810190610fe991906140bc565b6110255760405162461bcd60e51b815260206004820152600d60248201526c1499599d5b990819985a5b1959609a1b6044820152606401610839565b6040805182815242602082015233917f17c1d890f3ffba4991a771a0b55802a1eff3159d0cce950fb68d1360530393d9910160405180910390a25050505061076760015f8051602061427c83398151915255565b611081613226565b5f600a5460ff16600281111561109957611099613acd565b146110dc5760405162461bcd60e51b8152602060048201526013602482015272526561636865642066696e616c20737461746560681b6044820152606401610839565b600a805460ff191660021790556040514281527f2ca440fb7fca85d7f55d395a4abd94817330b83a62f3502efbb4770144e4ca979060200160405180910390a1565b611126613226565b61112f5f613253565b565b6007805461113e90613fe8565b80601f016020809104026020016040519081016040528092919081815260200182805461116a90613fe8565b80156111b55780601f1061118c576101008083540402835291602001916111b5565b820191905f5260205f20905b81548152906001019060200180831161119857829003601f168201915b505050505081565b6111c5612b58565b5f600a5460ff1660028111156111dd576111dd613acd565b146111fa5760405162461bcd60e51b81526004016108399061401a565b5f841161123e5760405162461bcd60e51b81526020600482015260126024820152710416d6f756e74206d757374206265203e20360741b6044820152606401610839565b5f8311801561124f5750620f424083105b6112a65760405162461bcd60e51b815260206004820152602260248201527f5072696365206d757374206265206265747765656e203020616e642031205553604482015261444360f01b6064820152608401610839565b801561136657600480546040516323b872dd60e01b81526001600160a01b03909116916323b872dd916112df91339130918a91016140fe565b6020604051808303815f875af11580156112fb573d5f803e3d5ffd5b505050506040513d601f19601f8201168201806040525081019061131f91906140bc565b6113615760405162461bcd60e51b81526020600482015260136024820152721554d110c81b1bd8dada5b99c819985a5b1959606a1b6044820152606401610839565b6113de565b5f82611373576002611376565b60015b90508461138333836106c8565b10156113d15760405162461bcd60e51b815260206004820152601b60248201527f496e73756666696369656e742073686172657320746f2073656c6c00000000006044820152606401610839565b6113dc338287612e33565b505b601080545f91826113ee83614122565b919050559050604051806101000160405280828152602001336001600160a01b031681526020018681526020018581526020018415158152602001831515815260200186815260200160011515815250600f5f8381526020019081526020015f205f820151815f01556020820151816001015f6101000a8154816001600160a01b0302191690836001600160a01b0316021790555060408201518160020155606082015181600301556080820151816004015f6101000a81548160ff02191690831515021790555060a08201518160040160016101000a81548160ff02191690831515021790555060c0820151816005015560e0820151816006015f6101000a81548160ff021916908315150217905550905050336001600160a01b0316817f20e51e4907027c980204ec977a8e280f3a71fc7f0d2d9a93091c9daf17d2119d87878787426040516115649594939291909485526020850193909352901515604084015215156060830152608082015260a00190565b60405180910390a35061158360015f8051602061427c83398151915255565b50505050565b5f60605f805f60606006546007600854600b54600c545f60028111156115b1576115b1613acd565b600a5460ff1660028111156115c8576115c8613acd565b14611638576001600a5460ff1660028111156115e6576115e6613acd565b14611612576040518060400160405280600981526020016810d05390d15313115160ba1b815250611656565b60405180604001604052806008815260200167149154d3d315915160c21b815250611656565b6040518060400160405280600481526020016327a822a760e11b8152505b84805461166290613fe8565b80601f016020809104026020016040519081016040528092919081815260200182805461168e90613fe8565b80156116d95780601f106116b0576101008083540402835291602001916116d9565b820191905f5260205f20905b8154815290600101906020018083116116bc57829003601f168201915b50505050509450955095509550955095509550909192939495565b6116fc613226565b5f600a5460ff16600281111561171457611714613acd565b146117575760405162461bcd60e51b8152602060048201526013602482015272526561636865642066696e616c20737461746560681b6044820152606401610839565b80600114806117665750806002145b6117a45760405162461bcd60e51b815260206004820152600f60248201526e496e76616c6964206f7574636f6d6560881b6044820152606401610839565b600a805460ff1916600190811790915581146117c15760026117c4565b60015b600a805461ff0019166101008360028111156117e2576117e2613acd565b02179055507fcbbe35de088a5a787855818a0fda296aeb95f616e7b99c7dcb0bf96b5697e22b600a60019054906101000a900460ff164260405161182792919061413a565b60405180910390a150565b61183d3383836132a4565b5050565b611849612b58565b61185482825f612f72565b61183d60015f8051602061427c83398151915255565b611872612b58565b5f818152600f60205260409020600681015460ff166118c65760405162461bcd60e51b815260206004820152601060248201526f4f72646572206e6f742061637469766560801b6044820152606401610839565b60018101546001600160a01b031633146119135760405162461bcd60e51b815260206004820152600e60248201526d2737ba103cb7bab91037b93232b960911b6044820152606401610839565b60068101805460ff191690556004810154610100900460ff16156119e85760048054600583015460405163a9059cbb60e01b81526001600160a01b039092169263a9059cbb926119679233929091016140a3565b6020604051808303815f875af1158015611983573d5f803e3d5ffd5b505050506040513d601f19601f820116820180604052508101906119a791906140bc565b6119e35760405162461bcd60e51b815260206004820152600d60248201526c1499599d5b990819985a5b1959609a1b6044820152606401610839565b611a22565b60048101545f9060ff166119fd576002611a00565b60015b9050611a203382846005015460405180602001604052805f815250613361565b505b817faa2a006d186dc89a3d6851834c85d16226329ac40bcad6531a5756a38ed1c90f42604051611a5491815260200190565b60405180910390a25061076760015f8051602061427c83398151915255565b611a7b612b58565b6001600a5460ff166002811115611a9457611a94613acd565b14611ada5760405162461bcd60e51b815260206004820152601660248201527513585c9ad95d081a5cc81b9bdd081c995cdbdb1d995960521b6044820152606401610839565b335f908152600d6020526040812054600c54600b546001600160a01b03909216929182918291611b0a91906140d7565b90505f6001600a54610100900460ff166002811115611b2b57611b2b613acd565b03611b7357506001611b3d33826106c8565b60015f5260116020527f17bc176d2408558f6e4111feebc3cab4e16b63e967be91cde721f4c8a488b552549094505b9250611c13565b6002600a54610100900460ff166002811115611b9157611b91613acd565b03611bd657506002611ba333826106c8565b60025f5260116020527f08037d7b151cc412d25674a4e66b334d9ae9d2e5517a7feaae5cdb828bf1c62854909450611b6c565b60405162461bcd60e51b815260206004820152601260248201527113dd5d18dbdb59481d5b9c995cdbdb1d995960721b6044820152606401610839565b5f8411611c565760405162461bcd60e51b81526020600482015260116024820152704e6f2077696e6e696e672073686172657360781b6044820152606401610839565b5f8311611ca55760405162461bcd60e51b815260206004820152601760248201527f4e6f2077696e6e696e672073686172657320746f74616c0000000000000000006044820152606401610839565b5f83611cb1848761405a565b611cbb9190614071565b90505f61271060095483611ccf919061405a565b611cd99190614071565b90505f611ce68284614090565b9050611cf3338589612e33565b6004805460405163a9059cbb60e01b81526001600160a01b039091169163a9059cbb91611d249133918691016140a3565b6020604051808303815f875af1158015611d40573d5f803e3d5ffd5b505050506040513d601f19601f82011682018060405250810190611d6491906140bc565b611da55760405162461bcd60e51b81526020600482015260126024820152711554d110c81c185e5bdd5d0819985a5b195960721b6044820152606401610839565b8115612086576001600160a01b03881615611fcd575f612710611dca6113888561405a565b611dd49190614071565b90505f611de18285614090565b6001600160a01b038b165f908152600e6020526040812080549293508492909190611e0d9084906140d7565b90915550506004805460405163a9059cbb60e01b81526001600160a01b039091169163a9059cbb91611e43918e918791016140a3565b6020604051808303815f875af1158015611e5f573d5f803e3d5ffd5b505050506040513d601f19601f82011682018060405250810190611e8391906140bc565b611ec85760405162461bcd60e51b8152602060048201526016602482015275149959995c9c985b081c185e5bdd5d0819985a5b195960521b6044820152606401610839565b6004805460055460405163a9059cbb60e01b81526001600160a01b039283169363a9059cbb93611efc9316918691016140a3565b6020604051808303815f875af1158015611f18573d5f803e3d5ffd5b505050506040513d601f19601f82011682018060405250810190611f3c91906140bc565b611f815760405162461bcd60e51b8152602060048201526016602482015275151c99585cdd5c9e481c185e5bdd5d0819985a5b195960521b6044820152606401610839565b6040805183815242602082015233916001600160a01b038d16917f8eadd36a0aee67beaef95bd7b130cb68a3b1a16ac68f0b395333c0db184428a2910160405180910390a35050612086565b6004805460055460405163a9059cbb60e01b81526001600160a01b039283169363a9059cbb936120019316918791016140a3565b6020604051808303815f875af115801561201d573d5f803e3d5ffd5b505050506040513d601f19601f8201168201806040525081019061204191906140bc565b6120865760405162461bcd60e51b8152602060048201526016602482015275151c99585cdd5c9e481c185e5bdd5d0819985a5b195960521b6044820152606401610839565b604080518481526020810184905290810182905242606082015233907f31211480742249e0699d1591a32c54ef966a1bc7c036ad6fd44334c34b649eb99060800160405180910390a2505050505050505061112f60015f8051602061427c83398151915255565b6120f5612b58565b5f828152600f60205260409020600681015460ff166121495760405162461bcd60e51b815260206004820152601060248201526f4f72646572206e6f742061637469766560801b6044820152606401610839565b5f8211801561215c575080600501548211155b61219e5760405162461bcd60e51b8152602060048201526013602482015272125b9d985b1a5908199a5b1b08185b5bdd5b9d606a1b6044820152606401610839565b60018101546001600160a01b031633036121fa5760405162461bcd60e51b815260206004820152601a60248201527f43616e6e6f742066696c6c20796f7572206f776e206f726465720000000000006044820152606401610839565b60048101545f9060ff1661220f576002612212565b60015b6004830154909150610100900460ff16156123855760038201545f9061223b85620f424061405a565b6122459190614071565b90508061225233846106c8565b10156122965760405162461bcd60e51b815260206004820152601360248201527254616b657220686173206e6f2073686172657360681b6044820152606401610839565b6122a1338383612e33565b600183015460408051602081019091525f81526122cb916001600160a01b03169084908490613361565b6004805460405163a9059cbb60e01b81526001600160a01b039091169163a9059cbb916122fc9133918991016140a3565b6020604051808303815f875af1158015612318573d5f803e3d5ffd5b505050506040513d601f19601f8201168201806040525081019061233c91906140bc565b61237f5760405162461bcd60e51b81526020600482015260146024820152731554d110c81d1bc81d185ad95c8819985a5b195960621b6044820152606401610839565b50612530565b5f620f424083600301548561239a919061405a565b6123a49190614071565b600480546040516323b872dd60e01b81529293506001600160a01b0316916323b872dd916123d891339130918791016140fe565b6020604051808303815f875af11580156123f4573d5f803e3d5ffd5b505050506040513d601f19601f8201168201806040525081019061241891906140bc565b61245b5760405162461bcd60e51b815260206004820152601460248201527315185ad95c881c185e5b595b9d0819985a5b195960621b6044820152606401610839565b61247533838660405180602001604052805f815250613361565b60048054600185015460405163a9059cbb60e01b81526001600160a01b039283169363a9059cbb936124ab9316918691016140a3565b6020604051808303815f875af11580156124c7573d5f803e3d5ffd5b505050506040513d601f19601f820116820180604052508101906124eb91906140bc565b61252e5760405162461bcd60e51b81526020600482015260146024820152731554d110c81d1bc81b585ad95c8819985a5b195960621b6044820152606401610839565b505b82826005015f8282546125439190614090565b909155505060058201545f036125605760068201805460ff191690555b60408051848152426020820152339186917f36a54e61f475a84cd4a5c3b403be29e6101b05ec843b61fb97c3e123ff59b3f4910160405180910390a3505061183d60015f8051602061427c83398151915255565b6125bc612b58565b5f600a5460ff1660028111156125d4576125d4613acd565b146125f15760405162461bcd60e51b81526004016108399061401a565b806125fd3360026106c8565b10156126415760405162461bcd60e51b8152602060048201526013602482015272496e73756666696369656e742073686172657360681b6044820152606401610839565b5f61264c6002612a9f565b90505f620f424061265d838561405a565b6126679190614071565b90505f61271061267860c88461405a565b6126829190614071565b90505f61268f8284614090565b905061269d33600287612e33565b82600c5f8282546126ae9190614090565b90915550506004805460405163a9059cbb60e01b81526001600160a01b039091169163a9059cbb916126e49133918691016140a3565b6020604051808303815f875af1158015612700573d5f803e3d5ffd5b505050506040513d601f19601f8201168201806040525081019061272491906140bc565b6127625760405162461bcd60e51b815260206004820152600f60248201526e151c985b9cd9995c8819985a5b1959608a1b6044820152606401610839565b335f908152600d60205260409020546001600160a01b0316801580159061278857505f83115b15612992575f61271061279d6113888661405a565b6127a79190614071565b90505f6127b48286614090565b6001600160a01b0384165f908152600e60205260408120805492935084929091906127e09084906140d7565b90915550506004805460405163a9059cbb60e01b81526001600160a01b039091169163a9059cbb916128169187918791016140a3565b6020604051808303815f875af1158015612832573d5f803e3d5ffd5b505050506040513d601f19601f8201168201806040525081019061285691906140bc565b6128945760405162461bcd60e51b815260206004820152600f60248201526e149959995c9c985b0819985a5b1959608a1b6044820152606401610839565b6004805460055460405163a9059cbb60e01b81526001600160a01b039283169363a9059cbb936128c89316918691016140a3565b6020604051808303815f875af11580156128e4573d5f803e3d5ffd5b505050506040513d601f19601f8201168201806040525081019061290891906140bc565b6129465760405162461bcd60e51b815260206004820152600f60248201526e151c99585cdd5c9e4819985a5b1959608a1b6044820152606401610839565b6040805183815242602082015233916001600160a01b038616917f8eadd36a0aee67beaef95bd7b130cb68a3b1a16ac68f0b395333c0db184428a2910160405180910390a35050612a3f565b6004805460055460405163a9059cbb60e01b81526001600160a01b039283169363a9059cbb936129c69316918891016140a3565b6020604051808303815f875af11580156129e2573d5f803e3d5ffd5b505050506040513d601f19601f82011682018060405250810190612a0691906140bc565b612a3f5760405162461bcd60e51b815260206004820152600a6024820152691199594819985a5b195960b21b6044820152606401610839565b604080515f8152602081018890529081018390526060810184905242608082015233907fcdb6774d4feebf6f81a8ec31ee4dcf92b418a4b2202926b797e7eac5c08e75259060a001610cda565b612a94612b58565b61185482825f612b73565b5f80600c54600b54612ab191906140d7565b9050805f03612ac557506207a12092915050565b60018303612af05780600b54620f4240612adf919061405a565b612ae99190614071565b9392505050565b80600c54620f4240612adf919061405a565b50919050565b612b1133610d02565b610d1585858585856133c5565b612b26613226565b6001600160a01b038116612b4f57604051631e4fbdf760e01b81525f6004820152602401610839565b61076781613253565b612b60613452565b60025f8051602061427c83398151915255565b5f600a5460ff166002811115612b8b57612b8b613acd565b14612ba85760405162461bcd60e51b81526004016108399061401a565b6008544210612bec5760405162461bcd60e51b815260206004820152601060248201526f13585c9ad95d081a185cc8195b99195960821b6044820152606401610839565b5f8311612c0b5760405162461bcd60e51b815260040161083990614151565b600480546040516323b872dd60e01b81526001600160a01b03909116916323b872dd91612c3e91339130918991016140fe565b6020604051808303815f875af1158015612c5a573d5f803e3d5ffd5b505050506040513d601f19601f82011682018060405250810190612c7e91906140bc565b612cc15760405162461bcd60e51b81526020600482015260146024820152731554d110c81d1c985b9cd9995c8819985a5b195960621b6044820152606401610839565b5f600c54600b54612cd291906140d7565b90505f815f03612cee57612ce785600261405a565b9050612d19565b5f600b5411612cfe576001612d02565b600b545b612d0c838761405a565b612d169190614071565b90505b82811015612d645760405162461bcd60e51b8152602060048201526018602482015277536c6970706167653a20546f6f206665772073686172657360401b6044820152606401610839565b84600b5f828254612d7591906140d7565b92505081905550612d973360018360405180602001604052805f815250613361565b6001600160a01b03841615801590612db857506001600160a01b0384163314155b15612de557335f908152600d6020526040902080546001600160a01b0319166001600160a01b0386161790555b604080516001815260208101879052429181019190915233907f6ce1f870748af127e987dbf88043a12a0171c5ac302d65c3c79222c51201ca9e906060015b60405180910390a25050505050565b6001600160a01b038316612e5b57604051626a0d4560e21b81525f6004820152602401610839565b604080516001808252602082018590528183019081526060820184905260a082019092525f60808201818152919291610d159187918590859083613481565b816001600160a01b0316816001600160a01b031614158015612ee157506001600160a01b038082165f9081526001602090815260408083209386168352929052205460ff16155b1561183d5760405163711bec9160e11b81526001600160a01b03808416600483015282166024820152604401610839565b6001600160a01b038416612f3b57604051632bfa23e760e11b81525f6004820152602401610839565b6001600160a01b038516612f6357604051626a0d4560e21b81525f6004820152602401610839565b610d1585858585856001613481565b5f600a5460ff166002811115612f8a57612f8a613acd565b14612fa75760405162461bcd60e51b81526004016108399061401a565b6008544210612feb5760405162461bcd60e51b815260206004820152601060248201526f13585c9ad95d081a185cc8195b99195960821b6044820152606401610839565b5f831161300a5760405162461bcd60e51b815260040161083990614151565b600480546040516323b872dd60e01b81526001600160a01b03909116916323b872dd9161303d91339130918991016140fe565b6020604051808303815f875af1158015613059573d5f803e3d5ffd5b505050506040513d601f19601f8201168201806040525081019061307d91906140bc565b6130c05760405162461bcd60e51b81526020600482015260146024820152731554d110c81d1c985b9cd9995c8819985a5b195960621b6044820152606401610839565b5f600c54600b546130d191906140d7565b90505f815f036130ed576130e685600261405a565b9050613118565b5f600c54116130fd576001613101565b600c545b61310b838761405a565b6131159190614071565b90505b828110156131635760405162461bcd60e51b8152602060048201526018602482015277536c6970706167653a20546f6f206665772073686172657360401b6044820152606401610839565b84600c5f82825461317491906140d7565b925050819055506131963360028360405180602001604052805f815250613361565b6001600160a01b038416158015906131b757506001600160a01b0384163314155b156131e457335f908152600d6020526040902080546001600160a01b0319166001600160a01b0386161790555b604080515f815260208101879052429181019190915233907f6ce1f870748af127e987dbf88043a12a0171c5ac302d65c3c79222c51201ca9e90606001612e24565b6003546001600160a01b0316331461112f5760405163118cdaa760e01b8152336004820152602401610839565b600380546001600160a01b038381166001600160a01b0319831681179093556040519116919082907f8be0079c531659141344cd1fd0a4f28419497f9722a3daafe3b4186f6b6457e0905f90a35050565b6001600160a01b0383166132cd57604051631f18c42760e11b81525f6004820152602401610839565b6001600160a01b0382166132f55760405162ced3e160e81b81525f6004820152602401610839565b6001600160a01b038381165f81815260016020908152604080832094871680845294825291829020805460ff191686151590811790915591519182527f17307eab39ab6107e8899845ad3d59bd9653f200f220920489ca2b5937696c31910160405180910390a3505050565b6001600160a01b03841661338a57604051632bfa23e760e11b81525f6004820152602401610839565b604080516001808252602082018690528183019081526060820185905260808201909252906133bd5f8784848784613481565b505050505050565b6001600160a01b0384166133ee57604051632bfa23e760e11b81525f6004820152602401610839565b6001600160a01b03851661341657604051626a0d4560e21b81525f6004820152602401610839565b6040805160018082526020820186905281830190815260608201859052608082019092529061344987878484875f613481565b50505050505050565b5f8051602061427c8339815191525460020361112f57604051633ee5aeb560e01b815260040160405180910390fd5b61348d868686866134d9565b6001600160a01b038516156133bd573381156134b6576134b18188888888886135d7565b613449565b602085810151908501516134ce838a8a85858a6136f8565b505050505050505050565b6134e5848484846137df565b6001600160a01b03841661355f575f5b825181101561355d57818181518110613510576135106140ea565b602002602001015160115f85848151811061352d5761352d6140ea565b602002602001015181526020019081526020015f205f82825461355091906140d7565b90915550506001016134f5565b505b6001600160a01b038316611583575f5b8251811015610d155781818151811061358a5761358a6140ea565b602002602001015160115f8584815181106135a7576135a76140ea565b602002602001015181526020019081526020015f205f8282546135ca9190614090565b909155505060010161356f565b6001600160a01b0384163b156133bd5760405163bc197c8160e01b81526001600160a01b0385169063bc197c819061361b9089908990889088908890600401614192565b6020604051808303815f875af1925050508015613655575060408051601f3d908101601f19168201909252613652918101906141ef565b60015b6136bc573d808015613682576040519150601f19603f3d011682016040523d82523d5f602084013e613687565b606091505b5080515f036136b457604051632bfa23e760e11b81526001600160a01b0386166004820152602401610839565b805160208201fd5b6001600160e01b0319811663bc197c8160e01b1461344957604051632bfa23e760e11b81526001600160a01b0386166004820152602401610839565b6001600160a01b0384163b156133bd5760405163f23a6e6160e01b81526001600160a01b0385169063f23a6e619061373c908990899088908890889060040161420a565b6020604051808303815f875af1925050508015613776575060408051601f3d908101601f19168201909252613773918101906141ef565b60015b6137a3573d808015613682576040519150601f19603f3d011682016040523d82523d5f602084013e613687565b6001600160e01b0319811663f23a6e6160e01b1461344957604051632bfa23e760e11b81526001600160a01b0386166004820152602401610839565b805182511461380e5781518151604051635b05999160e01b815260048101929092526024820152604401610839565b335f5b8351811015613910576020818102858101820151908501909101516001600160a01b038816156138c2575f828152602081815260408083206001600160a01b038c1684529091529020548181101561389c576040516303dee4c560e01b81526001600160a01b038a166004820152602481018290526044810183905260648101849052608401610839565b5f838152602081815260408083206001600160a01b038d16845290915290209082900390555b6001600160a01b03871615613906575f828152602081815260408083206001600160a01b038b168452909152812080548392906139009084906140d7565b90915550505b5050600101613811565b5082516001036139905760208301515f906020840151909150856001600160a01b0316876001600160a01b0316846001600160a01b03167fc3d58168c5ae7397731d063d5bbf3d657854427343f4c083240f7aacaa2d0f628585604051613981929190918252602082015260400190565b60405180910390a45050610d15565b836001600160a01b0316856001600160a01b0316826001600160a01b03167f4a39dc06d4c0dbc64b70af90fd698a233a518aa5d07e595d983b8c0526c8f7fb86866040516139df92919061424e565b60405180910390a45050505050565b80356001600160a01b0381168114613a04575f80fd5b919050565b5f8060408385031215613a1a575f80fd5b613a23836139ee565b946020939093013593505050565b6001600160e01b031981168114610767575f80fd5b5f60208284031215613a56575f80fd5b8135612ae981613a31565b5f60208284031215613a71575f80fd5b5035919050565b5f81518084525f5b81811015613a9c57602081850181015186830182015201613a80565b505f602082860101526020601f19601f83011685010191505092915050565b602081525f612ae96020830184613a78565b634e487b7160e01b5f52602160045260245ffd5b6003811061076757634e487b7160e01b5f52602160045260245ffd5b60208101613b0a83613ae1565b91905290565b634e487b7160e01b5f52604160045260245ffd5b604051601f8201601f1916810167ffffffffffffffff81118282101715613b4d57613b4d613b10565b604052919050565b5f67ffffffffffffffff821115613b6e57613b6e613b10565b5060051b60200190565b5f82601f830112613b87575f80fd5b81356020613b9c613b9783613b55565b613b24565b8083825260208201915060208460051b870101935086841115613bbd575f80fd5b602086015b84811015613bd95780358352918301918301613bc2565b509695505050505050565b5f82601f830112613bf3575f80fd5b813567ffffffffffffffff811115613c0d57613c0d613b10565b613c20601f8201601f1916602001613b24565b818152846020838601011115613c34575f80fd5b816020850160208301375f918101602001919091529392505050565b5f805f805f60a08688031215613c64575f80fd5b613c6d866139ee565b9450613c7b602087016139ee565b9350604086013567ffffffffffffffff80821115613c97575f80fd5b613ca389838a01613b78565b94506060880135915080821115613cb8575f80fd5b613cc489838a01613b78565b93506080880135915080821115613cd9575f80fd5b50613ce688828901613be4565b9150509295509295909350565b5f8060408385031215613d04575f80fd5b823567ffffffffffffffff80821115613d1b575f80fd5b818501915085601f830112613d2e575f80fd5b81356020613d3e613b9783613b55565b82815260059290921b84018101918181019089841115613d5c575f80fd5b948201945b83861015613d8157613d72866139ee565b82529482019490820190613d61565b96505086013592505080821115613d96575f80fd5b50613da385828601613b78565b9150509250929050565b5f815180845260208085019450602084015f5b83811015613ddc57815187529582019590820190600101613dc0565b509495945050505050565b602081525f612ae96020830184613dad565b5f805f60608486031215613e0b575f80fd5b83359250613e1b602085016139ee565b9150604084013590509250925092565b5f60208284031215613e3b575f80fd5b612ae9826139ee565b8015158114610767575f80fd5b5f805f8060808587031215613e64575f80fd5b84359350602085013592506040850135613e7d81613e44565b91506060850135613e8d81613e44565b939692955090935050565b86815260c060208201525f613eb060c0830188613a78565b86604084015285606084015284608084015282810360a0840152613ed48185613a78565b9998505050505050505050565b5f8060408385031215613ef2575f80fd5b613efb836139ee565b91506020830135613f0b81613e44565b809150509250929050565b5f8060408385031215613f27575f80fd5b82359150613f37602084016139ee565b90509250929050565b5f8060408385031215613f51575f80fd5b50508035926020909101359150565b5f8060408385031215613f71575f80fd5b613f7a836139ee565b9150613f37602084016139ee565b5f805f805f60a08688031215613f9c575f80fd5b613fa5866139ee565b9450613fb3602087016139ee565b93506040860135925060608601359150608086013567ffffffffffffffff811115613fdc575f80fd5b613ce688828901613be4565b600181811c90821680613ffc57607f821691505b602082108103612b0257634e487b7160e01b5f52602260045260245ffd5b60208082526012908201527126b0b935b2ba1034b9903737ba1037b832b760711b604082015260600190565b634e487b7160e01b5f52601160045260245ffd5b80820281158282048414176106e9576106e9614046565b5f8261408b57634e487b7160e01b5f52601260045260245ffd5b500490565b818103818111156106e9576106e9614046565b6001600160a01b03929092168252602082015260400190565b5f602082840312156140cc575f80fd5b8151612ae981613e44565b808201808211156106e9576106e9614046565b634e487b7160e01b5f52603260045260245ffd5b6001600160a01b039384168152919092166020820152604081019190915260600190565b5f6001820161413357614133614046565b5060010190565b6040810161414784613ae1565b9281526020015290565b60208082526021908201527f42657420616d6f756e74206d7573742062652067726561746572207468616e206040820152600360fc1b606082015260800190565b6001600160a01b0386811682528516602082015260a0604082018190525f906141bd90830186613dad565b82810360608401526141cf8186613dad565b905082810360808401526141e38185613a78565b98975050505050505050565b5f602082840312156141ff575f80fd5b8151612ae981613a31565b6001600160a01b03868116825285166020820152604081018490526060810183905260a0608082018190525f9061424390830184613a78565b979650505050505050565b604081525f6142606040830185613dad565b82810360208401526142728185613dad565b9594505050505056fe9b779b17422d0df92223018b32b4d1fa46e071723d6817e2486d003becc55f00a2646970667358221220b6c22d92af46904bd32f30e87ead8cf7230a637148d4a5fccfb71aae722f7e1a64736f6c63430008180033",
  "linkReferences": {},
  "deployedLinkReferences": {}
}