{
  "_format": "hh-sol-artifact-1",
  "contractName": "MockUSDC",
  "sourceName": "contracts/BinaryMarket.test.sol",
  "abi": [
    {
      "inputs": [
        {
          "internalType": "address",
          "name": "",
          "type": "address"
        },
        {
          "internalType": "address",
          "name": "",
          "type": "address"
        }
      ],
      "name": "allowance",
      "outputs": [
        {
          "internalType": "uint256",
          "name": "",
          "type": "uint256"
        }
      ],
      "stateMutability": "view",
      "type": "function"
    },
    {
      "inputs": [
        {
          "internalType": "address",
          "name": "spender",
          "type": "address"
        },
        {
          "internalType": "uint256",
          "name": "amount",
          "type": "uint256"
        }
      ],
      "name": "approve",
      "outputs": [
        {
          "internalType": "bool",
          "name": "",
          "type": "bool"
        }
      ],
      "stateMutability": "nonpayable",
      "type": "function"
    },
    {
      "inputs": [
        {
          "internalType": "address",
          "name": "",
          "type": "address"
        }
      ],
      "name": "balanceOf",
      "outputs": [
        {
          "internalType": "uint256",
          "name": "",
          "type": "uint256"
        }
      ],
      "stateMutability": "view",
      "type": "function"
    },
    {
      "inputs": [
        {
          "internalType": "address",
          "name": "to",
          "type": "address"
        },
        {
          "internalType": "uint256",
          "name": "amount",
          "type": "uint256"
        }
      ],
      "name": "mint",
      "outputs": [],
      "stateMutability": "nonpayable",
      "type": "function"
    },
    {
      "inputs": [
        {
          "internalType": "address",
          "name": "to",
          "type": "address"
        },
        {
          "internalType": "uint256",
          "name": "amount",
          "type": "uint256"
        }
      ],
      "name": "transfer",
      "outputs": [
        {
          "internalType": "bool",
          "name": "",
          "type": "bool"
        }
      ],
      "stateMutability": "nonpayable",
      "type": "function"
    },
    {
      "inputs": [
        {
          "internalType": "address",
          "name": "from",
          "type": "address"
        },
        {
          "internalType": "address",
          "name": "to",
          "type": "address"
        },
        {
          "internalType": "uint256",
          "name": "amount",
          "type": "uint256"
        }
      ],
      "name": "transferFrom",
      "outputs": [
        {
          "internalType": "bool",
          "name": "",
          "type": "bool"
        }
      ],
      "stateMutability": "nonpayable",
      "type": "function"
    }
  ],
  "bytecode": "0x608060405234801561000f575f80fd5b506104cc8061001d5f395ff3fe608060405234801561000f575f80fd5b5060043610610060575f3560e01c8063095ea7b31461006457806323b872dd1461008c57806340c10f191461009f57806370a08231146100b4578063a9059cbb146100e1578063dd62ed3e146100f4575b5f80fd5b6100776100723660046103aa565b61011e565b60405190151581526020015b60405180910390f35b61007761009a3660046103d2565b61014b565b6100b26100ad3660046103aa565b6102b2565b005b6100d36100c236600461040b565b5f6020819052908152604090205481565b604051908152602001610083565b6100776100ef3660046103aa565b6102e2565b6100d361010236600461042b565b600160209081525f928352604080842090915290825290205481565b335f9081526001602081815260408084206001600160a01b03871685529091529091208290555b92915050565b6001600160a01b0383165f908152602081905260408120548211156101ae5760405162461bcd60e51b8152602060048201526014602482015273496e73756666696369656e742062616c616e636560601b60448201526064015b60405180910390fd5b6001600160a01b0384165f9081526001602090815260408083203384529091529020548211156102195760405162461bcd60e51b8152602060048201526016602482015275496e73756666696369656e7420616c6c6f77616e636560501b60448201526064016101a5565b6001600160a01b0384165f9081526020819052604081208054849290610240908490610470565b90915550506001600160a01b0383165f908152602081905260408120805484929061026c908490610483565b90915550506001600160a01b0384165f908152600160209081526040808320338452909152812080548492906102a3908490610470565b90915550600195945050505050565b6001600160a01b0382165f90815260208190526040812080548392906102d9908490610483565b90915550505050565b335f908152602081905260408120548211156103375760405162461bcd60e51b8152602060048201526014602482015273496e73756666696369656e742062616c616e636560601b60448201526064016101a5565b335f9081526020819052604081208054849290610355908490610470565b90915550506001600160a01b0383165f9081526020819052604081208054849290610381908490610483565b909155506001949350505050565b80356001600160a01b03811681146103a5575f80fd5b919050565b5f80604083850312156103bb575f80fd5b6103c48361038f565b946020939093013593505050565b5f805f606084860312156103e4575f80fd5b6103ed8461038f565b92506103fb6020850161038f565b9150604084013590509250925092565b5f6020828403121561041b575f80fd5b6104248261038f565b9392505050565b5f806040838503121561043c575f80fd5b6104458361038f565b91506104536020840161038f565b90509250929050565b634e487b7160e01b5f52601160045260245ffd5b818103818111156101455761014561045c565b808201808211156101455761014561045c56fea2646970667358221220323934fd8ffabcef947e6f833232a29924bc2128e7892f345467f213a3f7bd7f64736f6c63430008180033",
  "linkReferences": {},
  "deployedLinkReferences": {}
}